:100000000C944E010C947F010C947F010C947F01A1
:100010000C947F010C947F010C947F010C947F0160
:100020000C947F010C947F010C947F010C947F0150
:100030000C947F010C947F010C947F010C947F0140
:100040000C947F010C9452100C947F010C947F014E
:100050000C947F010C947F010C947F010C941E0F73
:100060000C947F010C94920F0C94680F0C947F01F8
:100070000C947F010C947F010C947F010C947F0100
:100080000C9424100C947F010C947F010C947F013C
:100090000C947F010C947F010C947F010C947F01E0
:1000A0000C947F010C947F010C94F60F0C947F014B
:1000B0000C947F010C947F010C947F010C94C80F69
:1000C0000C947F010C947F010C947F010C947F01B0
:1000D0000C947F010C947F010C947F010C947F01A0
:1000E0000C947F010C9418020C9406020C94F402F8
:1000F0000C94EB010C9480100C941C020C94D20212
:100100000C94D0010C9479030C942C030C94FC01F6
:100110000C94E6020C940E020C94F3010C94F6017C
:100120000C940A020C94D5010C9496020C94EF01E5
:100130000C94E7010C9426020C9414020C94C30254
:100140000C9400020C9422020C9492020000803F56
:10015000CDCCCC3D6F12833A95BFD6337D1D902612
:10016000B3CE010C00000A0B02090C0D0E080703A8
:10017000040100000000000000000000000000007A
:10018000000000000000000000000000000000006F
:10019000121110000000000000000000000000002C
:1001A00000000000000000000000000020410000EE
:1001B000C84200401C4620BCBE4CCA1B0E5AAEC5ED
:1001C0009D74CDCCCC3D0AD7233C17B7D13877CC22
:1001D0002B329595E6241FB14F0A0000220025001E
:1001E00028002B002E003100340002010000050120
:1001F00008010B0100002100240027002A002D0027
:100200003000330001010000040107010A01050567
:100210000505070508080808020202020A0A08087C
:1002200004040404010101010101010103030303AA
:1002300003030303040707070C0C0C0C0C0C0C0C39
:100240000202020206060606060606060B0B0B0B4A
:100250000B0B0B0B0102102020080810204010206F
:10026000408002010201080402010102040810207A
:100270004080804020100804020180040201804078
:1002800020100804020108040201010204081020E1
:1002900040800102040810204080801011241FBEFD
:1002A000CFEFD1E2DEBFCDBF00E00CBF12E0A0E097
:1002B000B2E0E6E0FCE200E00BBF02C007900D9266
:1002C000A43AB107D9F723E0A4EAB2E001C01D9235
:1002D000AC3FB207E1F711E0CEE4D1E000E006C0A8
:1002E00021970109802FFE010E94E614CD34D10729
:1002F00080E00807A9F70E9422110C9401160C94C3
:10030000000090E0FC01EC5AFD4F2491825F9D4F6C
:10031000FC018491882399F090E0880F991FFC01DB
:10032000EC50FE4FA591B491FC01E652FE4F859131
:1003300094918FB7F894EC91E22BEC938FBF0895D2
:10034000282F30E0F901EC59FE4F9491F901EC5A55
:10035000FD4F4491225F3D4FF9012491222309F47E
:1003600035C0992311F191509231F8F4E92FF0E062
:100370008827E254FE4F8F4F0C94E614EF01F301EF
:10038000D001E701EB01D501F601FC0100020602F4
:100390000A020E0214021802D5011C0222022602D1
:1003A000809180008F7780938000E22FF0E0EE0F45
:1003B000FF1FE652FE4FA591B4918FB7F894EC91D0
:1003C000611148C040954E234C938FBF0895809192
:1003D00080008F7DE8CF80918000877FE4CF84B557
:1003E0008F7784BDE2CF84B58F7DFBCF8091B00045
:1003F0008F778093B000D9CF8091B0008F7DF9CFF7
:10040000809190008F7780939000CFCF8091900063
:100410008F7DF9CF80919000877FF5CF8091A000EC
:100420008F778093A000C1CF8091A0008F7DF9CFFE
:100430008091A000877FF5CF809120018F778093F6
:100440002001B3CF809120018F7DF9CF80912001D1
:10045000877FF5CF4E2BB8CF3FB7F8948091B1028C
:100460009091B202A091B302B091B40226B5A89BBC
:1004700005C02F3F19F00196A11DB11D3FBFBA2F36
:10048000A92F982F8827BC01CD01620F711D811DF6
:10049000911D42E0660F771F881F991F4A95D1F77B
:1004A00008958F929F92AF92BF92CF92DF92EF9278
:1004B000FF920E942C024B015C0184E1C82ED12CDA
:1004C000E12CF12C0E942C02681979098A099B09F8
:1004D000683E734081059105A8F321E0C21AD10856
:1004E000E108F10888EE880E83E0981EA11CB11C7B
:1004F000C114D104E104F10429F7FF90EF90DF90DB
:10050000CF90BF90AF909F908F9008952FB7F894A1
:100510006091AD027091AE028091AF029091B002F5
:100520002FBF089581E08093AA020895AF92BF92F1
:10053000CF92DF92EF92FF920F931F93CF93DF93AF
:100540006C017B018B01040F151FEB015E01AE18DE
:10055000BF08C017D10759F06991D601ED91FC9100
:100560000190F081E02DC6011995892B79F7C5011D
:10057000DF91CF911F910F91FF90EF90DF90CF907F
:10058000BF90AF900895FC01538D448D252F30E02E
:10059000842F90E0821B930B541710F0CF96089590
:1005A00001970895FC01918D828D981761F0A28DBD
:1005B000AE0FBF2FB11D5D968C91928D9F5F9F7383
:1005C000928F90E008958FEF9FEF0895FC01918D39
:1005D000828D981731F0828DE80FF11D858D90E0A6
:1005E00008958FEF9FEF0895FC01918D228D892F43
:1005F00090E0805C9F4F821B91098F73992708952B
:1006000085EB92E00E94F40221E0892B09F420E0BE
:10061000822F0895FC01A48DA80FB92FB11DA35AF4
:10062000BF4F2C91848D90E001968F739927848F12
:10063000A689B7892C93A089B1898C918370806435
:100640008C93938D848D981306C00288F389E02DD6
:1006500080818F7D80830895EF92FF920F931F9387
:10066000CF93DF93EC0181E0888F9B8D8C8D981365
:100670001AC0E889F989808185FF15C09FB7F89471
:10068000EE89FF896083E889F989808183708064BD
:1006900080839FBF81E090E0DF91CF911F910F9108
:1006A000FF90EF900895F62E0B8D10E00F5F1F4F17
:1006B0000F731127E02E8C8D8E110CC00FB607FC26
:1006C000FACFE889F989808185FFF5CFCE010E94B4
:1006D0000A03F1CFEB8DEC0FFD2FF11DE35AFF4F15
:1006E000F0829FB7F8940B8FEA89FB898081806242
:1006F000CFCFCF93DF93EC01888D8823B9F0AA89FF
:10070000BB89E889F9898C9185FD03C0808186FDCC
:100710000DC00FB607FCF7CF8C9185FFF2CF80811B
:1007200085FFEDCFCE010E940A03E9CFDF91CF9183
:10073000089581E08093AB0208950E94000388230E
:1007400019F081E08093AB0280E090E0892B49F0C2
:1007500080E090E0892B29F00E94000081110E9426
:10076000000080E090E0892B49F080E090E0892B48
:1007700029F00E94000081110E94000080E090E0BA
:10078000892B49F080E090E0892B29F00E9400003D
:1007900081110C9400000895CF92DF92EF92FF92A6
:1007A000CF93DF93EC01603282E07807CCF5653BB4
:1007B000710514F064EB70E0898128E830E0281BB3
:1007C000310987FD3395220F331F220F331F690133
:1007D000330FEE08FF088A8128E532E0281B310933
:1007E00087FD3395220F331F220F331F032E000C7A
:1007F000440B550B2C193D094E095F09DB0177FFAE
:1008000002C0B0E0A0E00E948D1424EB30E040E094
:1008100050E00E946314C20ED31EE41EF51EB60102
:10082000E881E03370F5298188E890E0821B910926
:1008300027FD9395880F991F880F991F68177907CF
:100840007CF02A8188E592E0821B910927FD93952F
:10085000880F991F880F991F681779070CF4CB012F
:100860000297880F991F4FB7F8942E2F30E0F901A7
:10087000EE0FFF1FE20FF31FEE5AFC4F92838183AE
:100880004FBFDF91CF91FF90EF90DF90CF90089511
:100890008130910581F41092800082E08093810084
:1008A0001092850010928400B19A80916F0082604E
:1008B00080936F0008958230910569F41092900042
:1008C00082E080939100109295001092940088BB72
:1008D0008093710008958330910569F41092A0000F
:1008E00082E08093A1001092A5001092A40089BB21
:1008F000809372000895892B61F41092200182E0A8
:100900008093210110922501109224018ABB8093CB
:1009100073000895AF92BF92CF92DF92EF92FF9251
:100920000F931F93CF93DF936B017A01EC01CC55AA
:10093000DD4F28813CE0389F8001399F100D112444
:10094000A090E203B12C27FF1FC0FB01118210828F
:1009500088818F5F888388819801280F311D87FDEA
:100960003A95F6012A153B051CF488818C30C4F1B8
:1009700080819181049680349C4908F473C0F6010B
:1009800080819181049670C088819801280F311D63
:1009900087FD3A952A153B05DCF68881A801480FAA
:1009A000511D87FD5A95FA01EE0FFF1FE40FF51F49
:1009B000EE5AFC4F808186FFCBCF8881F801E80F8B
:1009C000F11D87FDFA95CF01EE0FFF1FE80FF91F0C
:1009D000EE5AFC4F808160E08F730E94A001B8CF77
:1009E000808191812881A801420F511D27FD5A95D0
:1009F0009A01FA01EE0FFF1FE20FF31FEE5AFC4FB0
:100A000021813281820F931FF70191838083888136
:100A10009801280F311D87FD3A95F901EE0FFF1F50
:100A2000E20FF31FEE5AFC4F808186FF22C08881BF
:100A3000080F111D87FD1A95F801EE0FFF1FE00F3B
:100A4000F11FEE5AFC4F808161E08F73DF91CF91EF
:100A50001F910F91FF90EF90DF90CF90BF90AF90DC
:100A60000C94A00180E49CE9F701918380838FEFCF
:100A70008883DF91CF911F910F91FF90EF90DF90CE
:100A8000CF90BF90AF900895CF93DF93EC01888112
:100A90009981DC01ED91FC910190F081E02D199597
:100AA0002A813B81820F931F9B838A83DF91CF91A1
:100AB0000895982F80336CF08A3324F08F3524F01A
:100AC0008B3724F481E0089581341CF081E09B355C
:100AD0000CF080E00895CF93DF93EC018881998139
:100AE000DC01ED91FC910280F381E02D19952A81C2
:100AF0003B81820F931F9B838A83DF91CF9108955F
:100B00008F929F92AF92BF92CF92DF92EF92FF921D
:100B10000F931F93CF93DF93CDB7DEB766970FB6D2
:100B2000F894DEBF0FBECDBF6C018E01095E1F4F72
:100B300078018AE0882E912CA12CB12CCB01BA012E
:100B4000A50194010E949514942F852F605DF801F2
:100B500062938F01A901692F782F41155105610515
:100B6000710561F7A7014E1B5F0BBF01C6010E9413
:100B70006B0566960FB6F894DEBF0FBECDBFDF9152
:100B8000CF911F910F91FF90EF90DF90CF90BF908A
:100B9000AF909F908F900895CF92DF92EF92FF9247
:100BA0000F931F93CF93DF93EC018C85811130C09D
:100BB00009851A850E948602D80118966D937D9347
:100BC0008D939C931B97D801ED91FC910284F38542
:100BD000E02DC801199597FF25C00E948602F801F3
:100BE000C084D184E284F3846C197D098E099F0945
:100BF000C480D580E680F7806C157D058E059F0545
:100C000010F38FEF9FEF97FD80E08B8781E08C875B
:100C10008B85DF91CF911F910F91FF90EF90DF9027
:100C2000CF9008959927EFCF1F93CF93DF93EC01D7
:100C3000162F0E94CC05811306C01C8681E0DF912F
:100C4000CF911F91089580E0FACF0F931F93CF9318
:100C5000DF938C01EB018991882369F0C8010E9420
:100C6000CC05882379F0FE013197908198130DC04F
:100C7000F8011486F0CF90E080E0DF91CF911F91D2
:100C80000F91089582E090E0F8CF83E090E0F5CFF7
:100C9000CF93DF93EC01CE010E94CC058B304CF456
:100CA00089305CF4882359F081E0888790E080E007
:100CB0000BC08D3011F08032B9F71C86ECCF8885DF
:100CC000811105C081E090E0DF91CF91089582E02D
:100CD00090E0FACF08950895FC0124813581A9019F
:100CE0004F5F5F4F868197814817590748F482818B
:100CF000938155834483FC01E20FF31F60830895C1
:100D00000190F081E02D81E0808708959F92AF925D
:100D1000BF92CF92DF92EF92FF920F931F93CF93E8
:100D2000DF9300D01F921F92CDB7DEB78C010E94D7
:100D3000CC05D82ED8011C961C92F12CE12C60EF2A
:100D4000C62EC8010E94CC05F8011486D81609F4F5
:100D5000B4C0811113C082E090E00F900F900F900B
:100D60000F900F90DF91CF911F910F91FF90EF9017
:100D7000DF90CF90BF90AF909F9008958C3509F091
:100D80009AC0C8010E94CC05882329F3EEE1F2E065
:100D9000853709F084C0D8011C961C9254E0952E2A
:100DA000B12CA12CC8010E94CC058823A1F281346A
:100DB00034F48053803130F083E090E0CECF8F7DEB
:100DC0008753F8CF44E0AA0CBB1C4A95E1F7A82A48
:100DD000F80114869A949110E5CFC501985D8115AC
:100DE000944020F47501F3E0FF22ABCFC5019C5D78
:100DF00081159440A8F483E0B822B701762F6627C6
:100E0000770F770F6A297B2990E080E001966038A0
:100E100071058105910540F4C8010E946C0691CFCF
:100E2000B50190E080E0F3CF1982262F2F73206860
:100E30002A8326E096958795779567952A95D1F729
:100E40006032710580F4606C6B835E01A4E0AA0ED1
:100E5000B11CD5016E915D01662309F472CFC80102
:100E60000E946C06F6CF262F2F7320682B8386E016
:100E7000769567958A95E1F76031710538F4606E73
:100E80006C835E01B5E0AB0EB11CE3CF60686C8390
:100E9000CD825E01E6E0AE0EB11CDBCF32969081D2
:100EA000992309F489CF8913F9CF8181882309F423
:100EB00083CFF8011486682FAFCF0190F081E02D29
:100EC0008085882319F084E090E047CF90E080E0AF
:100ED00044CFCF93DF93DC01EB01EC81FD818A816C
:100EE0009B810896E817F90740F481E08887F0E0D5
:100EF000E0E0CF01DF91CF9108953897FD83EC8337
:100F00003097B9F31296CD91DC911397209791F019
:100F1000CF018C1B9D0B23E0959587952A95E1F7D2
:100F20008D831396FC93EE93129715821482178289
:100F30001682DFCF1196FC93EE93F3CFEF92FF92E0
:100F40000F931F93CF93DF937C01DC0112962D91B9
:100F50003C911397ED91FC91AB01420F531FEF01B0
:100F6000C60FD71FC217D307A0F4888181110BC009
:100F7000E901CF014C175D0751F00991DC011D918A
:100F8000CD010117B9F381918111FDCFE8CF3097E1
:100F900051F4620F731FCB010196F7019383828393
:100FA000DB011C92F901CF01DF91CF911F910F91CD
:100FB000FF90EF900895FC012581222339F0F8E09D
:100FC0002F0290011124820F931F089590E080E07A
:100FD0000895FC0101900020E9F73197AF01481B0B
:100FE000590BBC0185EB92E00C949602CF93DF93F2
:100FF0006115710579F1EB01DC018D919C910097F0
:1010000059F1DC011696ED91FC91DE010D90002066
:10101000E9F71197AD014C1B5D0B30E020E03097F4
:1010200049F0DF010D900020E9F79D0121503109C1
:101030002E1B3F0B2417350751F4DE012C0F3D1FEB
:101040002A173B0749F05D9141915417C9F30E945B
:10105000DB07D5CF90E080E0DF91CF9108954F92EC
:101060005F926F927F928F929F92AF92BF92CF9238
:10107000DF92EF92FF920F931F93CF93DF93EC01D8
:101080008B01D42E0E9448067C01892B09F053C0A5
:10109000CE010E94CC05863609F462C194F58732F0
:1010A00029F08B35D1F1823209F063C1E881F981F1
:1010B000828193819B838A8384819581228133817C
:1010C000821B930B9F838E831D821C82892B11F4BC
:1010D00081E08087CE010E9486067C01892B59F52C
:1010E000CC80DD80B601888199810E949E07F8013D
:1010F000248120782560248391838083D382C282D7
:101100001AC0843709F410C18B3709F45AC08E36DF
:1011100009F02FC16AE372E010C1F8018481807880
:10112000806484831182108213821282D11015C0D0
:10113000C5E0EC2EF12CC701DF91CF911F910F91EB
:10114000FF90EF90DF90CF90BF90AF909F908F90E7
:101150007F906F905F904F9008951C86CE010E9403
:101160004806009709F06EC26DE5CE010E94140694
:101170008111E1CFDA946D857E85C8010E946907EF
:10118000009709F46FC04D2DBC01CE010E942F08BD
:10119000009709F057C2CE010E944806009709F057
:1011A00051C26DE5CE010E9414068111C4CF6CE2DC
:1011B000CE010E9414068111DECFB3E0EB2EF12C9C
:1011C000BACFF80184818078806284831182108292
:1011D00013821282DD2009F4ABCF1C86CE010E945F
:1011E0004806009709F02EC26DE7CE010E94140652
:1011F0008111A1CFCC24C394DA94E881F981828152
:1012000093819B838A838481958122813381821B90
:10121000930B9F838E831D821C82892B09F4C086C9
:10122000CE010E94CC05873209F18232F9F0CE015D
:101230000E94CC05F82E0E945905882309F4BDCFE1
:101240001C866F2DCE010E946C06CE010E94CC053B
:10125000F82E0E9459058111F3CFE881F98180852C
:10126000882359F084E0E82EF12C65CFCE010E944E
:1012700086067C01892B09F05ECFCE010E944806CC
:101280007C01892B09F057CF6AE3CE010E94140636
:10129000882309F492CFEA81FB818C819D81E80F3C
:1012A000F91F1082EC80FD806A817B81C8010E9459
:1012B000F607BC01892BA1F4B701888199810E94AE
:1012C0009E077C016D857E85C8010E946907FC012F
:1012D000892B41F2848180688483F782E682BF0192
:1012E0004D2DCE010E942F087C01892B09F023CFC0
:1012F000CE010E9448067C01892B09F01CCF6DE7C6
:10130000CE010E941406811116CF6CE2CE010E941C
:101310001406882309F451CFCE010E9448067C01AF
:10132000892B09F46ACF07CFF80184818078866021
:10133000848381E080836FE272E0CE01DF91CF9100
:101340001F910F91FF90EF90DF90CF90BF90AF90E3
:101350009F908F907F906F905F904F900C94250698
:10136000F8018481807886608483108264E372E06F
:10137000E4CFCE010E94CC055E01FFE0AF0EB11CB0
:10138000D12C9A2CCB2C803374F08A3374F42FE355
:10139000D21699F01C86D394F50181935F01CE019A
:1013A0000E94CC05F0CF8B3291F393ED980F9230E1
:1013B00070F3982F9F7D953451F3FE01ED0DF11DD3
:1013C00017868F858B32E1F16096DD24D3948D32C0
:1013D00019F0C92DDC2DD12C888190ED980F9A3011
:1013E00018F08E3209F0E9CE60E070E0CB01FE012A
:1013F0002191A0ED8A2E820E39E0381518F16A3954
:1014000049E97407840749E1940730F5AAE0B0E0A0
:101410009B01AC010E948214912CB12CA12C2401BF
:1014200035014094509460947094461657066806AF
:10143000790690F0680D791D8A1D9B1DEF01D7CFAD
:101440006096C9CF211108C0DD2069F161307105B6
:10145000810550E89507A0F0C12C5AE0852E912C0B
:10146000A12CB12C61157105F0E88F07910528F1C9
:10147000A50194010E949514CA01B901C394F2CF49
:10148000F801248120782A6024839B01AC018827FD
:101490009927DC01821B930BA40BB50B80839183EE
:1014A000A283B38348CEF801248120782860248366
:1014B00060837183828393833ECEDE01299130ED78
:1014C000320F3A3010F4C394F8CF2E32D9F4FD0124
:1014D0003196DF013196CC91C053CA3098F46C3C00
:1014E0002CEC72072CE08207910598F7AAE0B0E097
:1014F0009B01AC010E9482146C0F711D811D911D16
:10150000CA94E7CF2C912F7DD0E0C0E0253409F0BC
:1015100055C011962C9111972D32C9F51296BB2406
:10152000B394FD01D0E0C0E02C2D0C2C000C330B4B
:101530004AE0942EDF01A19040ED4A0D4A30C8F5F3
:101540009C9EA0019D9E500D1124CA2DAA0CDD0B5E
:10155000E097C40FD51FAE01420F531F473251050C
:101560004CF3F8018481BB20C9F040E050E060E01A
:1015700070E8D11003C040E050E0BA0180788C6080
:10158000F80184834083518362837383D4CD2B32EB
:1015900019F01196B12CC5CF1296FCCF40E050E067
:1015A00060E87FEFD110EACF40E050E060E87FE7ED
:1015B000E5CFBB2019F0D195C195D1092C9121110E
:1015C000FCCDCC0DD11DC7FCDA950E9444131C162E
:1015D0001D0604F5C12CC0FF0CC024E0C29EF00122
:1015E0001124E655FE4F25913591459154910E9465
:1015F000A513D595C795C394209769F7D110905836
:10160000F801248120782C60248360837183828395
:10161000938391CDD195C195D109C12C209771F3B8
:10162000C0FF0CC044E0C49EF0011124EE53FE4FF5
:1016300025913591459154910E94A513D595C79553
:10164000C394ECCF7C0177CD0F931F93CF93DF939F
:10165000CDB7DEB7C156D2400FB6F894DEBF0FBE8D
:10166000CDBFCE010F969A8389839C838B8383E0C1
:1016700092E08C0F9D1F9E838D8398878F831986A0
:101680001E8682509240C65ADD4F99838883CA5580
:10169000D24028E0FE01E65AFD4FDE01AE5ABD4FB2
:1016A00001900D922A95E1F728E0FE01EE5AFD4FD8
:1016B000DE01AD5FBD4F01900D922A95E1F7C55F48
:1016C000DD4F1882CB50D24025EB32E0C45FDD4FB6
:1016D00039832883CC50D240C15FDD4F1882CF5070
:1016E000D240C05FDD4F99838883C051D2404AE029
:1016F000BE01665F7F4F8E5F9D4F0E942F088C0159
:10170000892BE9F4C25FDD4F8881CE50D240882317
:1017100099F08E851092AB0203E010E083FD11C0BA
:10172000CF59DD4F0FB6F894DEBF0FBECDBFDF91AE
:10173000CF911F910F9108951092AB02F1CF1092AB
:10174000AB028FE392E00E94E907000F111FF8013E
:10175000E050FE4F80819181009711F00E94E907CF
:1017600086E592E00E94E907DBCFFB0101900020B3
:10177000E9F73197AF01461B570B0C946B051F938C
:10178000CF93DF93EEE1F2E01281112379F03296EC
:1017900021816213F9CFEC016CE50E944405612FB1
:1017A000CE01DF91CF911F910C9444056111F9CFC7
:1017B00069E572E0DF91CF911F910C94B50B2F92E8
:1017C0003F924F925F926F927F928F929F92AF92D1
:1017D000BF92CF92DF92EF92FF920F931F93CF931E
:1017E000DF93CDB7DEB76C970FB6F894DEBF0FBEB0
:1017F000CDBF8C011B01DC0114968C9114978F775F
:10180000863009F492C268F58230A0F11296ED900C
:10181000FC901397CC901196DC90843008F056C25F
:10182000A701B601C1010E946B05F101828193817C
:101830006C960FB6F894DEBF0FBECDBFDF91CF918F
:101840001F910F91FF90EF90DF90CF90BF90AF90DE
:101850009F908F907F906F905F904F903F902F90D0
:1018600008958C3069F160F4883009F459C28A30E7
:1018700009F43FC26AE372E0C1010E94B50BE5C101
:10188000803209F4ECC18034A9F76BE5C1010E94F4
:101890004405F801008111810115110509F4DAC12F
:1018A000B101C8010E94DF0BC8010E94DB078C0157
:1018B000892B09F4CFC16CE2C1010E944405ECCF31
:1018C000F801C080D180E280F380A7019601C701B2
:1018D000B6010E943F138111CDCF20E030E0A90175
:1018E000C701B6010E943F13882379F0A701960132
:1018F000C701B6010E94EF149B01AC01C701B601FC
:101900000E943F13882309F4B5CF20E030E0A901FD
:10191000C701B6010E943F1387FF08C06DE2C101F5
:101920000E944405F7FAF094F7F8F09420E836E9BD
:1019300048E15BE4C701B6010E94FC1587FD81C048
:1019400074E1A72EB12C00E210E0188E1F8AF50179
:10195000E655FE4F2591359145915491C701B60149
:101960000E94FC1587FD13C0F501EE53FE4F259133
:10197000359145915491C701B6010E94A5136B01A1
:101980007C012F89388D200F311F388F2F8B1595B3
:10199000079534E0A31AB1088CEFA8168FEFB806AC
:1019A000B1F655245A9420E030E0A901C701B601F0
:1019B0000E94FC1518160CF04BC02CEA35EC47E2DF
:1019C00057E3C701B6010E943F1318160CF440C03C
:1019D000A52DB4E0AB02C0011124B12CA12CFC0157
:1019E000E45BFE4F3F019C0126553E4F49013FEF0E
:1019F000531671F1F301EA0DFB1D259135914591C7
:101A00005491C701B6010E943F1387FF13C0F40130
:101A1000EA0DFB1D2591359145915491C701B60101
:101A20000E94A5136B017C018F89988D801B910BFF
:101A3000988F8F8B159507955A9494E0A91AB10841
:101A4000D6CF00E210E055E0552E188E1F8AABCF9E
:101A5000C701B6010E94CD154B015C012B013C0171
:101A600006E080E492E4AFE0B0E0898F9A8FAB8F1C
:101A7000BC8F102F01509AE0491651046104710483
:101A8000C8F0698D7A8D8B8D9C8D2AE030E040E026
:101A900050E00E949514298F3A8F4B8F5C8FC301C1
:101AA000B2012AE030E040E050E00E9495142901A4
:101AB0003A01DFCFC501B4010E9444139B01AC0180
:101AC000C701B6010E94EE146B017C01698D7A8D0D
:101AD0008B8D9C8D0E9444139B01AC01C701B60104
:101AE0000E94A5132B013C010E94CD156B017C01C6
:101AF0000E9444139B01AC01C301B2010E94EE1489
:101B00009B01AC010E94EF140E94CD15C60ED71E9A
:101B1000E81EF91E898D9A8DAB8DBC8DC816D9062D
:101B2000EA06FB06D8F09FEF891A990AA90AB90AB2
:101B3000AF89B88DAB2B39F1BAE08B169104A104B3
:101B4000B10408F1EF89F88D3196F88FEF8BC12C35
:101B5000D12C7601812C912C540183942AE0422EC1
:101B6000512C612C712CC701B601A30192010E9476
:101B70009514672B682B692B51F4111644F46901F5
:101B80007A011150F0CFC12CD12C7601E7CFB501ED
:101B9000A401C1010E948005112371F14E01F1E100
:101BA0008F0E911C012F54019AE0492E512C612C6B
:101BB000712C015068F0C701B601A30192010E9487
:101BC0009514605DD4016E934D0169017A01F1CFE6
:101BD000812F90E0BC0160957095F501E81BF90B31
:101BE00031978EE2808344275527461B570B6A0D99
:101BF0007B1DC1010E946B05EF89F88DEF2B29F148
:101C000065E6C1010E9444050F89188D17FF07C0C2
:101C10006DE2C1010E944405119501951109FE0173
:101C200077969F018AE0E82EF12CC801B7010E9447
:101C3000D214805D82938B01672BB9F7A9014E1BEB
:101C40005F0BBF01C1010E946B05D10112968D91FE
:101C50009C91EECD6DE5C1010E944405F6CF6BE786
:101C6000C1010E944405F80100811181011511058F
:101C700059F1D8011696CC9016971796DC9062E22F
:101C8000C1010E9444057601F70161917F0166233D
:101C900021F0C1010E94BF0BF7CF62E2C1010E9497
:101CA00044056AE3C1010E944405B101C8010E94D4
:101CB000DF0BC8010E94DB078C01892B29F06CE245
:101CC000C1010E944405D2CF6DE7C5CF62E2C101D8
:101CD0000E9444058601E00EF11EE016F10639F07F
:101CE000F80161918F01C1010E94BF0BF6CF62E242
:101CF000B2CFCD90DD90ED90FC90B701A601F7FE3C
:101D00000BC06DE2C1010E94440544275527BA016A
:101D10004C195D096E097F09C1010E94800585CDBE
:101D20004D915D916D917C91F7CF8C916FE272E056
:101D3000811102C064E372E0C1010E94B50B75CD50
:101D4000CF92DF92EF92FF920F931F93CF93DF9387
:101D5000CDB7DEB7C650D2400FB6F894DEBF0FBE87
:101D6000CDBFCE010F969A8389839C838B838E018E
:101D70000D5F1D4F1E830D8318870F8319861E86E6
:101D80000E9486020E94441320E030E04AE754E4B7
:101D90000E945B156B017C018E85982F9F7739F42B
:101DA000807880628E871B861A861D861C868E85AB
:101DB00085FF22C060E672E0CE010A960E94F60717
:101DC000FC01892B89F4BE016F5F7F4FCE010A961B
:101DD0000E946907FC01892B79F084818F778483C5
:101DE00080E692E097838683848180788C60848308
:101DF000C082D182E282F38285EB92E0F801918386
:101E0000808313821282B801CE010A960E94DF0BF2
:101E100085E692E00E94E9071092AA02CA5FDD4FB0
:101E20000FB6F894DEBF0FBECDBFDF91CF911F91EB
:101E30000F91FF90EF90DF90CF9008951F920F9237
:101E40000FB60F9211242F933F938F939F93AF93CD
:101E5000BF938091AD029091AE02A091AF02B0917C
:101E6000B0023091AC0223E0230F2D3758F50196D4
:101E7000A11DB11D2093AC028093AD029093AE02E0
:101E8000A093AF02B093B0028091B1029091B202E0
:101E9000A091B302B091B4020196A11DB11D80932F
:101EA000B1029093B202A093B302B093B402BF9177
:101EB000AF919F918F913F912F910F900FBE0F90F7
:101EC0001F90189526E8230F0296A11DB11DD2CFB1
:101ED0001F920F920FB60F9211240BB60F922F93F1
:101EE0003F934F935F936F937F938F939F93AF93A2
:101EF000BF93EF93FF9385EB92E00E940A03FF915B
:101F0000EF91BF91AF919F918F917F916F915F9171
:101F10004F913F912F910F900BBE0F900FBE0F90DE
:101F20001F9018951F920F920FB60F9211240BB6A7
:101F30000F922F938F939F93EF93FF93E091C5029E
:101F4000F091C6028081E091CB02F091CC0282FD3B
:101F50001DC090818091CE028F5F8F732091CF0240
:101F6000821741F0E091CE02F0E0EB54FD4F958FE7
:101F70008093CE02FF91EF919F918F912F910F90BF
:101F80000BBE0F900FBE0F901F9018958081F2CF5F
:101F90001F920F920FB60F9211240BB60F922F9330
:101FA0003F934F935F936F937F938F939F93AF93E1
:101FB000BF93EF93FF9348E251E064E271E090E059
:101FC00080E00E948A04FF91EF91BF91AF919F91B1
:101FD0008F917F916F915F914F913F912F910F90D2
:101FE0000BBE0F900FBE0F901F9018951F920F926F
:101FF0000FB60F9211240BB60F922F933F934F936E
:102000005F936F937F938F939F93AF93BF93EF9360
:10201000FF9348EA50E064EA70E083E090E00E94B9
:102020008A04FF91EF91BF91AF919F918F917F9122
:102030006F915F914F913F912F910F900BBE0F9039
:102040000FBE0F901F9018951F920F920FB60F9210
:1020500011240BB60F922F933F934F935F936F937F
:102060007F938F939F93AF93BF93EF93FF9348E931
:1020700050E064E970E082E090E00E948A04FF9101
:10208000EF91BF91AF919F918F917F916F915F91F0
:102090004F913F912F910F900BBE0F900FBE0F905D
:1020A0001F9018951F920F920FB60F9211240BB626
:1020B0000F922F933F934F935F936F937F938F93E1
:1020C0009F93AF93BF93EF93FF9348E850E064E88A
:1020D00070E081E090E00E948A04FF91EF91BF914F
:1020E000AF919F918F917F916F915F914F913F91B0
:1020F0002F910F900BBE0F900FBE0F901F90189551
:102100001092B8021092B70288EE93E0A0E0B0E01F
:102110008093B9029093BA02A093BB02B093BC0221
:1021200080E192E09093B6028093B50285EC90E056
:102130009093C2028093C10284EC90E09093C40219
:102140008093C30280EC90E09093C6028093C50216
:1021500081EC90E09093C8028093C70282EC90E0FB
:102160009093CA028093C90286EC90E09093CC02CF
:102170008093CB021092CE021092CF021092D00226
:102180001092D1028091E203803308F053C091E0B5
:10219000980F9093E2038093F90390E0FC01EE0F17
:1021A000FF1FE80FF91FEE5AFC4F88EB9BE092836C
:1021B00081838091E203803308F040C091E0980F62
:1021C0009093E2038093F60390E0FC01EE0FFF1F73
:1021D000E80FF91FEE5AFC4F88EB9BE09283818356
:1021E0001092E5031092E6031092E7031092E803C1
:1021F0001092E9031092EA031092EB031092EC03A1
:102200008FEF9FEFDC018093EE039093EF03A09399
:10221000F003B093F1038093F2039093F303A09340
:10222000F403B093F5031092ED031092E4031092BF
:10223000E30308958FEF8093F903BBCF8FEF809373
:10224000F603CECF789484B5826084BD84B5816076
:1022500084BD85B5826085BD85B5816085BD809171
:102260006E00816080936E001092810080918100E9
:1022700082608093810080918100816080938100E1
:10228000809180008160809380008091B1008460A3
:102290008093B1008091B00081608093B000809104
:1022A0009100826080939100809191008160809381
:1022B0009100809190008160809390008091A100B6
:1022C00082608093A1008091A10081608093A10031
:1022D0008091A00081608093A000809121018260A4
:1022E000809321018091210181608093210180915F
:1022F000200181608093200180917A008460809326
:102300007A0080917A00826080937A0080917A00CE
:10231000816080937A0080917A00806880937A004F
:102320001092C100E091C502F091C60282E0808364
:10233000E091C102F091C2021082E091C302F091DB
:10234000C40280E180831092CD02E091C902F09135
:10235000CA0286E08083E091C702F091C8028081C2
:1023600080618083E091C702F091C802808188601B
:102370008083E091C702F091C802808180688083E9
:10238000E091C702F091C80280818F7D808384E64E
:1023900090E0A0E0B0E08093E5039093E603A09383
:1023A000E703B093E80382E992E09093E40380931B
:1023B000E30381E08093ED030E9486020091E50330
:1023C0001091E6032091E7033091E803DC01CB0193
:1023D000800F911FA21FB31F8093E9039093EA031C
:1023E000A093EB03B093EC038091EE039091EF0385
:1023F000A091F003B091F1038093F2039093F30363
:10240000A093F403B093F5038091F903803308F0AF
:1024100042C08AE00E9481018091F903282F30E0B8
:10242000F901EE0FFF1FE20FF31FEE5AFC4F9081F0
:10243000907C9A6090831092FA031092FB032CE038
:10244000622F0E94C61490E0829FB001112430E0F8
:1024500020E0AB01420F531FFA01EE0FFF1FE40F04
:10246000F51FEE5AFC4F408146FD07C02F5F3F4FDE
:102470002C30310571F70E944804E091F9038E2F4A
:1024800090E0FC01EE0FFF1FE80FF91FEE5AFC4F22
:102490008081806480838091F603803308F042C09D
:1024A0008BE00E9481018091F603282F30E0F90132
:1024B000EE0FFF1FE20FF31FEE5AFC4F9081907C4E
:1024C0009B6090831092F7031092F8032CE0622F28
:1024D0000E94C61490E0829FB001112430E020E0F9
:1024E000AB01420F531FFA01EE0FFF1FE40FF51F60
:1024F000EE5AFC4F408146FD07C02F5F3F4F2C3006
:10250000310571F70E944804E091F6038E2F90E0A8
:10251000FC01EE0FFF1FE80FF91FEE5AFC4F808100
:102520008064808304EB10E08091AB0281110E94F3
:10253000240B8091AA0281110E94A00E1092A90280
:102540001092A802C091A802D091A902C53BD10562
:1025500094F4BE0189EF93E00E94CC03BE0186EFA4
:1025600093E00E94CC030E9451022196D093A902CD
:10257000C093A802E7CF1093A9020093A802C091CC
:10258000A802D091A902D7FD12C0BE0189EF93E045
:102590000E94CC03BE0186EF93E00E94CC030E9410
:1025A00051022197D093A902C093A802E8CF0E94BC
:1025B0008602C090E903D090EA03E090EB03F0902C
:1025C000EC03C616D706E806F90608F055C0809158
:1025D000ED03882309F450C08091EE039091EF033E
:1025E000A091F003B091F103892B8A2B8B2B09F476
:1025F00043C0E091E303F091E40319958091EE0369
:102600009091EF03A091F003B091F1031816190611
:102610001A061B06CCF48091F2039091F303A0916B
:10262000F403B091F5030197A109B1098093F20376
:102630009093F303A093F403B093F503892B8A2BB3
:102640008B2B11F41092ED030E948602C090E503DB
:10265000D090E603E090E703F090E803DC01CB01C3
:102660008C0D9D1DAE1DBF1D8093E9039093EA0361
:10267000A093EB03B093EC030E949D0355CF0E94FF
:10268000811308F481E00895E89409C097FB3EF4B3
:1026900090958095709561957F4F8F4F9F4F9923AF
:1026A000A9F0F92F96E9BB279395F695879577952D
:1026B0006795B795F111F8CFFAF4BB0F11F460FFED
:1026C0001BC06F5F7F4F8F4F9F4F16C0882311F045
:1026D00096E911C0772321F09EE8872F762F05C059
:1026E000662371F096E8862F70E060E02AF09A95F4
:1026F000660F771F881FDAF7880F9695879597F9E9
:102700000895990F0008550FAA0BE0E8FEEF161682
:102710001706E807F907C0F012161306E407F507D5
:1027200098F0621B730B840B950B39F40A2661F049
:10273000232B242B252B21F408950A2609F4A140EC
:10274000A6958FEF811D811D08950E94B8130C94EA
:1027500029140E941B1438F00E94221420F09523A3
:1027600011F00C9412140C94181411240C945D1490
:102770000E943A1470F3959FC1F3950F50E0551FD6
:10278000629FF001729FBB27F00DB11D639FAA27C6
:10279000F00DB11DAA1F649F6627B00DA11D661F15
:1027A000829F2227B00DA11D621F739FB00DA11D36
:1027B000621F839FA00D611D221F749F3327A00DF0
:1027C000611D231F849F600D211D822F762F6A2F8C
:1027D00011249F5750409AF0F1F088234AF0EE0FF1
:1027E000FF1FBB1F661F771F881F91505040A9F71E
:1027F0009E3F510580F00C9412140C945D145F3FC1
:10280000E4F3983ED4F3869577956795B795F79559
:10281000E7959F5FC1F7FE2B880F911D96958795D1
:1028200097F9089597F99F6780E870E060E0089550
:102830009FEF80EC089500240A94161617061806D8
:102840000906089500240A941216130614060506B4
:102850000895092E0394000C11F4882352F0BB0F45
:1028600040F4BF2B11F460FF04C06F5F7F4F8F4FA8
:102870009F4F089557FD9058440F551F59F05F3FE3
:1028800071F04795880F97FB991F61F09F3F79F092
:1028900087950895121613061406551FF2CF469514
:1028A000F1DF08C0161617061806991FF1CF869596
:1028B0007105610508940895E894BB27662777277A
:1028C000CB0197F90895052E97FB1EF400940E9402
:1028D0007A1457FD07D00E94951407FC03D04EF4DC
:1028E0000C947A1450954095309521953F4F4F4F59
:1028F0005F4F089590958095709561957F4F8F4FAC
:102900009F4F08950E94B714A59F900DB49F900DFE
:10291000A49F800D911D11240895B7FF0C9482147B
:102920000E948214821B930B0895A1E21A2EAA1B07
:10293000BB1BFD010DC0AA1FBB1FEE1FFF1FA2176F
:10294000B307E407F50720F0A21BB30BE40BF50B6C
:10295000661F771F881F991F1A9469F760957095F5
:10296000809590959B01AC01BD01CF010895A29F78
:10297000B001B39FC001A39F700D811D1124911D53
:10298000B29F700D811D1124911D0895991B79E04E
:1029900004C0991F961708F0961B881F7A95C9F7EF
:1029A00080950895AA1BBB1B51E107C0AA1FBB1F3E
:1029B000A617B70710F0A61BB70B881F991F5A95CB
:1029C000A9F780959095BC01CD010895EE0FFF1FEA
:1029D000881F8BBF0790F691E02D19945058BB27A4
:1029E000AA270E9406150C9429140E941B1438F083
:1029F0000E94221420F039F49F3F19F426F40C941D
:102A000018140EF4E095E7FB0C941214E92F0E94C1
:102A10003A1458F3BA17620773078407950720F032
:102A200079F4A6F50C945C140EF4E0950B2EBA2FF5
:102A3000A02D0B01B90190010C01CA01A0011124C4
:102A4000FF27591B99F0593F50F4503E68F11A1670
:102A5000F040A22F232F342F4427585FF3CF469501
:102A600037952795A795F0405395C9F77EF41F1623
:102A7000BA0B620B730B840BBAF09150A1F0FF0FED
:102A8000BB1F661F771F881FC2F70EC0BA0F621FD9
:102A9000731F841F48F4879577956795B795F795C9
:102AA0009E3F08F0B0CF9395880F08F09927EE0F5E
:102AB0009795879508950E946F150C9429140E948C
:102AC000221458F00E941B1440F029F45F3F29F0B3
:102AD0000C94121451110C945D140C9418140E944F
:102AE0003A1468F39923B1F3552391F3951B550BD1
:102AF000BB27AA2762177307840738F09F5F5F4FD1
:102B0000220F331F441FAA1FA9F335D00E2E3AF00F
:102B1000E0E832D091505040E695001CCAF72BD027
:102B2000FE2F29D0660F771F881FBB1F2617370778
:102B30004807AB07B0E809F0BB0B802DBF01FF27AA
:102B400093585F4F3AF09E3F510578F00C94121461
:102B50000C945D145F3FE4F3983ED4F3869577952B
:102B60006795B795F7959F5FC9F7880F911D969563
:102B7000879597F90895E1E0660F771F881FBB1FBF
:102B8000621773078407BA0720F0621B730B840B6C
:102B9000BA0BEE1F88F7E09508950E94421488F062
:102BA0009F5798F0B92F9927B751B0F0E1F0660F11
:102BB000771F881F991F1AF0BA95C9F714C0B13052
:102BC00091F00E945C14B1E008950C945C14672F9E
:102BD000782F8827B85F39F0B93FCCF38695779581
:102BE0006795B395D9F73EF490958095709561956A
:102BF0007F4F8F4F9F4F08950E94811308F48FEFEE
:062C00000895F894FFCFD7
:102C060067026A027502850292029B0200000000BA
:102C16002C039602C3027903F402D202E6022F2F96
:102C260022225C5C6208660C6E0A720D74090074DE
:102C36007275650066616C7365006E756C6C006418
:102C46006573657269616C697A65282920666169B0
:102C56006C65643A20000D0A005C75303030300037
:102C660074696D65002A004F6B00456D7074794973
:102C76006E70757400496E636F6D706C657465492E
:102C86006E70757400496E76616C6964496E707514
:102C960074004E6F4D656D6F727900546F6F4465A9
:042CA6006570000055
:00000001FF
